:020000040800F2
:1000000020080020C9000008BD08000823030008DC
:1000100000000000000000000000000000000000E0
:100020000000000000000000000000001D090008A2
:100030000000000000000000BF0800081F090008C1
:10004000DB00000800000000DB000008DB00000807
:10005000DB000008DB000008DB000008DB00000814
:1000600000000000DB000008DB000008DB000008E7
:10007000DB000008DB000008DB00000800000000D7
:10008000DB000008DB00000800000000DB000008C7
:10009000DB000008DB000008DB000008DB000008D4
:1000A00025030008DB000008DB000008DB00000877
:1000B000DB0000080348854600F046F8004800478A
:1000C000250B00082008002004488047044800470A
:1000D000FEE7FEE7FEE7FEE7FEE7FEE79109000820
:1000E000B500000830B50B4601460020202201244F
:1000F00009E00D46D5409D4205D31D469540491B5C
:100100002546954040191546521E002DF1DC30BDA4
:10011000D2B201E00270401C491EFBD2704700229F
:10012000F6E710B513460A4604461946FFF7F0FFF6
:10013000204610BD0321001D401E037812021A4301
:10014000491EF9D510467047064C0125064E05E0BC
:10015000E36807CC2B430C3C98471034B442F7D3E8
:10016000FFF7ACFFEC0B00080C0C000810B50446C0
:100170003421884301D1002C03D1034903A000F0AE
:100180008AFC0A48C46010BD8A0400002E2E5C431D
:100190006F72655C5372635C73746D333266307872
:1001A000785F666C6173682E630000000020024077
:1001B000F8B505461F20C00610492818884204D902
:1001C000FF2107310EA000F066FC0B273F043846E4
:1001D00000F096F804280FD1114C20690226304314
:1001E000206165612069402108432061384600F0A4
:1001F00087F82169B1432161F8BD0000FFFF0000CD
:100200002E2E5C436F72655C5372635C73746D3346
:1002100032663078785F666C6173682E6300000028
:100220000020024008490420CA68D20701D00120FA
:100230007047CA68D20601D502207047C9684907CD
:10024000FBD50320704700000020024002480169EE
:10025000802211430161704700200240F8B5054635
:10026000002000900E461F20C0061349281888421F
:1002700004D9FF214F3111A000F00DFC0B273F04E2
:10028000384600F03DF8042815D1144C20690121AE
:10029000084320612E80384600F032F8042806D149
:1002A000AD1C300C00952880384600F029F82169F3
:1002B000490849002161F8BDFFFF00002E2E5C4374
:1002C0006F72655C5372635C73746D333266307841
:1002D000785F666C6173682E630000000020024046
:1002E00004480169090603D5034941600349416097
:1002F000704700000020024023016745AB89EFCD25
:1003000000B50346FFF78EFF02E0FFF78BFF5B1E91
:10031000012803D0002B00D1052000BD002BF4D113
:10032000FAE7FEE7F0B52748826904271307082497
:100330002549002B14DAC3692343C3618369DB03B6
:10034000036805D502252B43036003230B7002E0ED
:100350003B4303600F70036820252B4303600AE0D2
:10036000930708D4530706D5456A184E4B88F554B1
:100370005B1C4B800F7092060123002A20DAC569AE
:1003800020221543C5610E780025032E0ED0042EC1
:100390000BD14D800B70016891430160416892025E
:1003A00011434160016821430160F0BDC269FF2330
:1003B00031331A43C2610268224302600D70F0BDFE
:1003C0008B80F0BD00580040000000201400002089
:1003D00010B500F061FB002810D0094C20680949D5
:1003E00008406104884209D100F06AFA6068064951
:1003F0008860C860216881F30888804710BD0000CC
:10040000001000080000FE2F0000002008B504497D
:100410004A6902434A6149690140009108BD0000F0
:100420000010024008B50449CA690243CA61C9699B
:100430000140009108BD000000100240F0B500240A
:100440004DE00123A3401A4048D04B68012B01D056
:10045000022B10D18E688568134653435F00DF1965
:10046000BD4373431D438560CD680B6846689E435A
:100470006B431E4346600F69C668134653435D00D5
:100480005D19AE435F433E43C6604E68022E1FD1E6
:10049000FF2A0ED817464A69066A94461A467A43D6
:1004A0007A431701BF1ABE4367467A431643066272
:1004B0000EE0160A324672434F6972437243BC46DD
:1004C0001601B71A466ABE4367467A431643466228
:1004D0004A6806685343AE431E430660641C0A68BC
:1004E0001346E340ADD10020F0BD000002460B4BA7
:1004F00000200B499A4202D10122520504E0094B27
:100500009A4208D1012292050B6913430B610B69D2
:1005100093430B6170470120704700000054004076
:10052000001002400058004030B5026852085200E6
:1005300002608C68CA6803681F252D021202AB4353
:100540002243134303604A680261026801231A438D
:10055000026083680122D203934383608C690B6934
:1005600085682343ED0AED021D4385600B69002B6E
:1005700002D08368134383600C68036803252D054C
:10058000AB43234303604B69416891431943416086
:10059000002030BD10B57D21C900FFF7A3FD04493F
:1005A000401E4861002088610520086110BD0000E0
:1005B00000E000E005480121026909070A430261E1
:1005C00002698A4302610020704700000010024067
:1005D00018B52048016801221143016001688907AC
:1005E000C90FFBD00168F8229143802319430160B1
:1005F0000021C9431849009141600C2441682142FF
:10060000FCD10168154C214000910160016889010D
:10061000C90FFBD101680124A404A143016000219A
:100620004160446B94431C434463426B5208520044
:100630004263426B04239A434263C1620163BF2257
:100640001204009282608160416A9A0511434162FE
:10065000002018BD001002400CF8FFF0FFFFF6FE6E
:1006600001490860704700001000002008B50649E5
:100670000A690092421C00D0401C0A69D20300D5CE
:10068000401E0028F9D108BD00E000E0F0B587B0B9
:1006900018216846FFF743FD01208004FFF7B6FEEE
:1006A00001204004FFF7B2FE01204B4E0003B06171
:1006B0004100B1618100B161C100B161011109273F
:1006C000FF06B961C110B9618110B9614110B9610A
:1006D000C100B9610821B1611021B1612021B1616E
:1006E0000024012500900294039469460195049426
:1006F0003046FFF7A3FE6803009002940394694616
:10070000019504943046FFF799FEA80300900294E7
:1007100003946946019504943046FFF78FFEE80381
:100720000090029403946946019504943046FFF7C3
:1007300085FE280200900294039469460195049472
:100740003846FFF77BFE68020090029403946946E6
:10075000019504943846FFF771FEA80200900294B8
:1007600003946946019504943846FFF767FEE80252
:100770000090029403946946019504943846FFF76B
:100780005DFEE80300900294039469460195049489
:100790003846FFF753FE0820009002940394694600
:1007A000019504943046FFF749FE10200090029412
:1007B00003946946019504943046FFF73FFE2020DC
:1007C0000090029403946946019504943046FFF723
:1007D00035FE07B0F0BD000000040048F0B58DB054
:1007E0001C2106A8FFF79BFC18216846FFF797FC21
:1007F00001208004FFF70AFE012401200025800269
:100800000226032703946A4604950594C1C26946EB
:100810001D48FFF713FEE00203946A460495059411
:10082000C1C269461848FFF709FEA005FFF7FAFDA7
:100830000021182000F0FEF8182000F0EFF8134C0B
:10084000E068E1138843E060206809018843206084
:1008500020688910884320600D480790A8200695DD
:100860000A90089509950B9506A90C952046FFF767
:100870005BFE6068310608436060E0680549084037
:10088000E0600DB0F0BD00000004004800580040DA
:100890000E09002001F8FFFF10B5074B9A680124EC
:1008A00022439A60002202E0845C1C70521C8A423F
:1008B000FAD31868C04310BD00300240FEE770470D
:1008C00010B5134C2046FFF711FE60680121490660
:1008D000884360602068400840002060206808214C
:1008E000884320600B48002101610B480268920791
:1008F000920F02608160C16001614161816982156E
:1009000011438161FFF764FEFFF754FE10BD000044
:100910000058004000E000E00000014070477047D0
:1009200010B5184801684908490001600168C90705
:10093000C90FFBD11448016801221143016001680D
:100940008907C90FFBD00168F82291438022114327
:1009500001604168F0229143416041680722120220
:100960009143416041688908890041600C224168D7
:100970001142FCD1054C2046FFF70CFE2046FFF744
:100980006FFE10BD002002400010024000127A00ED
:1009900070470000F8B5204C0826601CFFF7CAFB22
:1009A00000BA050A20792D020543F0012F1860795D
:1009B000A179000240180004000C21D0FFF790FC40
:1009C0003420FFF7D3FB2846FFF7F2FB0428FAD1C7
:1009D00014E0A0190090FFF7ADFB01020098090A8E
:1009E000C0780006014300912846FFF737FC042831
:1009F00001D00099F8E7361DB6B22D1DBD42E8D3EF
:100A0000002081220146D2002154401C9042FBD399
:100A1000FFF71CFCF8BD000014000020002805DBD7
:100A2000C106C90E012088400149086070470000D6
:100A300000E100E08307FF22DB0E9A408907090EE0
:100A40009940002808DB830809489B001B18186898
:100A500090430843186070470007000F0838830868
:100A600004489B001B18D86990430843D86170471D
:100A700000E400E000ED00E002E008C8121F08C139
:100A8000002AFAD170477047002001E001C1121F0F
:100A9000002AFBD17047704710B5084A054806493F
:100AA000D46BFFF7F9FE844201D1012010BD002074
:100AB00010BD000000100008FCEB0000C0FB0008A7
:100AC000144C012520780128FCD113490006086048
:100AD000BFF34F8FBFF36F8F002020700F48007857
:100AE0006070062802D0772805D102E0FFF752FF98
:100AF00001E0FFF76DFC1820FFF790FF084802683F
:100B000008210A43026002682A43026002680A431D
:100B10000260D7E70000002080E100E01400002020
:100B2000005800402D4886B0826901210A43826145
:100B30008069084000900807FFF774FC03210C1F30
:100B40002046FFF777FFFFF7EBFEFFF79FFD402002
:100B5000FFF75CFC224920228868602398431043F9
:100B60008860886880229043104388600C61182157
:100B70006846FFF7D4FA01208004FFF747FC012004
:100B80008002092600240125F60600906946049596
:100B900001943046FFF752FCE80200906946049544
:100BA00001943046FFF74AFCFF202D30FFF75EFD31
:100BB0000C4801690C4C49050826002902DB006934
:100BC000000501D5FFF704FCFFF708FE2068284365
:100BD0002060206830432060FFF772FF0010024061
:100BE0000030024000040048005800400C0C00088F
:100BF0000000002014000000780A0008200C000803
:100C0000140000200C080000880A00080000000002
:100C100000000000000000000000000000127A0048
:100C2000FFFFFFFFFFFFFFFFFFFFFFFFFFFFFFFFD4
:100C3000FFFFFFFFFFFFFFFFFFFFFFFFFFFFFFFFC4
:100C4000FFFFFFFFFFFFFFFFFFFFFFFFFFFFFFFFB4
:100C5000FFFFFFFFFFFFFFFFFFFFFFFFFFFFFFFFA4
:100FF000FFFFFFFFFFFFFFFFFFFFFFFFFFFFFF01FF
:10100000380F0020C9100008FD490008D53A000833
:1010100000000000000000000000000000000000D0
:101020000000000000000000000000008D4B0008E0
:101030000000000000000000E94A0008D15100084B
:10104000DB10000800000000DB100008DB100008C7
:10105000DB100008DB100008DB1000084B1C000848
:1010600000000000F11B0008DB100008DB10000886
:10107000BD190008DB100008DB10000800000000AC
:10108000DB100008DB10000800000000DB10000887
:10109000DB100008DB100008DB100008DB10000884
:1010A000D93A0008DB100008DB100008DB1000084C
:1010B000DB1000080348854600F06EFC004800473E
:1010C000215B0008380F002004488047044800478F
:1010D000FEE7FEE7FEE7FEE7FEE7FEE72152000837
:1010E000B510000830B50B4601460020202201242F
:1010F00009E00D46D5409D4205D31D469540491B4C
:101100002546954040191546521E002DF1DC30BD94
:1011100070B500242546002801DA01244042002948
:1011200001DA01254942FFF7DDFFAC4200D0404221
:10113000002C00D0494270BDF0B51FB40646002017
:1011400082B005464024019100901BE0019922469F
:101150000F46304600F05BFB049A059B801A9941CC
:1011600010D310461946224600F041FB361A8F4133
:101170000197224601200021009F00F038FB38181B
:101180004D4100902046641E0028DFDC019B009842
:101190002946324607B0F0BD03460B439B0703D0F8
:1011A00009E008C9121F08C0042AFAD203E00B782C
:1011B0000370401C491C521EF9D27047D2B201E0A4
:1011C0000270401C491EFBD270470022F6E710B5A2
:1011D00013460A4604461946FFF7F0FF204610BDA5
:1011E000F8B502464A40D40F42004B0052085B0853
:1011F0009A4202D20246084611464A0023D0C30D45
:101200004A00DDB2120EAD1A202D35DA4902012650
:10121000490AF6058A19002C00D0524220214F1BA2
:101220001146B9402A411018C20D9A4221D0002C13
:1012300017D0012D08DCDA05801AD20F8019D207E9
:10124000DBB200F010FBF8BDDA05801A0123400084
:101250001B06C01880185A428018CA0F1043490054
:1012600007E04908C2071143DA05801A80194008CF
:10127000801800F0F0FAF8BD61000122511A001B3D
:10128000F7E70122D2075140AAE70122D2075040D6
:10129000A6E7024670B54A40D30FDB0740002DD0C9
:1012A0004A002AD0010E140E000212020919400A47
:1012B000520A8418E50104465443000A120A2E0417
:1012C0005043A4194219200CC543AA18120C012539
:1012D000AD03521C521912047F39240400D0521C51
:1012E000104301D44000491EC2B20C06C0092018A8
:1012F000401C4008802A02D003E0002070BD400856
:101300004000002900DA0020184370BD70B5024685
:101310004A40D50F40004A00ED0740085208002817
:1013200014D0002A12D0C40DD30D41020120C005F3
:101330005202490A520AE41A091812187D349142DD
:1013400001D3641C00E04900002C01DA002070BDCC
:101350000023914201D3891A034340084900002821
:10136000F7D100290AD0914202D10121C90705E035
:10137000914201D2012101E00121C943E005C018D9
:10138000401900F068FA70BDF0B5074608465840AD
:1013900087B0C00F049048000E4659004008490825
:1013A000BC1A884105D2384631461E4617460B46C0
:1013B00002465800400810434CD0300D03904005C1
:1013C0005900400D490D0590401A0290402872DAEC
:1013D00018030121000B09050843019004980092AD
:1013E000002805D0019952420020884100920190C6
:1013F000029840210A1A0199009800F0F8F9054670
:101400000C466B4607CB00F013FAC0197141039AE2
:101410000E0D0023D71756401A467A40164344D083
:10142000049A002A2DD0029A012A039A15DC12058B
:10143000C01A914101263605001C7141D20F059E4C
:10144000D2070093019202962A46234600F051FAF1
:1014500007B0F0BD38463146FAE71605224A0F4676
:10146000B218C01AB74101210905001C4F410018EC
:101470007F41114618187941E20F10436D196441FC
:1014800013E0E2076D0815436408C2071443039A8A
:1014900001261205C01A91413605001C7141CE0784
:1014A000400830434908C01851412A46234600F0FD
:1014B00013FACDE7FFE7049801224000C117121A82
:1014C00000238B4104983146C417381AA141EEE736
:1014D00030B40124E407634030BC55E730B4012444
:1014E000E407614030BC4FE70000E0FFF0B51FB4F7
:1014F00088B00B990998002448400999C00F490009
:1015000049080991C0070B990090490049080B91BF
:1015100009990898A64608431CD00B990A980843D5
:1015200018D0099801244000420D4800410D099847
:1015300024050003000B204309900B980003000BC7
:1015400020430B9050181C4940180022019014466B
:10155000104605E0002001460DB0F0BD032801DA79
:10156000034600E003239C46C11A0AAE0AE05F006E
:1015700008ADED5B4F00F75B7D430027AA187C4167
:10158000491C5B1E6145F2DD410004AB5A52210447
:10159000120C0A43240C401C0828DFDB019802903F
:1015A0000099704601910090059B049A079906984E
:1015B00000F09FF9D0E700000DFCFFFFF0B50C46EE
:1015C0005C4085B0E40FE40703944C0000266408F7
:1015D00059009446490802460296224321D06246A9
:1015E0000A431ED06200570D4A000E032303550D17
:1015F000012402462C492405781B1B0B360B40188E
:1016000023432643614600901C46501AB44103D33D
:101610000098401C009002E0921800985B4100285E
:1016200003DA0020014605B0F0BD002001210905C4
:101630000746864611E064461D46141BB54106D395
:101640006546521BB341744607430C43A646CD077B
:1016500040084908284392185B4105460D43EAD1EA
:101660001046184313D06046194650407140084355
:1016700006D06046101AB34106D20122002306E0CC
:1016800000220123DB0702E00122D243531000981D
:1016900074460105381C6141029C039D0019694193
:1016A00000F01AF9BFE70000FD0300000122D20795
:1016B000002800DB101A002900DB511A814201D8F2
:1016C00001207047002070470122D207002800DB6C
:1016D000101A002900DB511A814201D20120704703
:1016E000002070470122D207002800DB101A0029D1
:1016F00000DB511A814201D301207047002070475E
:101700000122D207002800DB101A002900DB511A41
:10171000814201D90120704700207047C217C10FD4
:10172000504010B54018CA079623002100F09BF8DE
:1017300010BD10B500229623114600F094F810BD9C
:101740000EB505490291002100910A460B46019110
:1017500000F0CFF803B000BD33040000C20F410019
:1017600040020123400ADB05D207090EC0187F2979
:1017700001DA00207047962903DC9623591AC840E5
:1017800001E096398840002AF4D040427047C20FE9
:10179000D207400040080BD0C10D0723DB01C91858
:1017A00040020905400A1143C2084007114370472F
:1017B000002001467047CB0FDB07490010B54908F0
:1017C00002460A4307D00A0D07240903E401090B66
:1017D000121B002A01DC002010BDC900440F0C437D
:1017E000C100E018D205801800F035F810BD10B522
:1017F000202A04DB0146203A9140002010BD914090
:1018000020239C1A0346E3401943904010BD10B5B5
:10181000202A04DB0846203AD040002110BD0B46A8
:10182000D340D0402024A21A91400843194610BD4D
:1018300010B5202A06DBCB170846203A1041C11705
:101840000B4306E00B461341D0402024A21A9140DE
:101850000843194610BD002904DA401C490001D193
:1018600040084000704770B40024050C05D11024D6
:10187000000402D1002921D01124050E01D100025B
:101880000834050F01D10001241D850F01D180000E
:10189000A41C002801DB4000641C002908D020257E
:1018A0002E1B0D46F540A14000D0012129430843DD
:1018B00001061B1B000ADB1D02D5002070BC70470F
:1018C000DB05181880180029F8DA401C4900F5D10A
:1018D00070BC40084000704710B5002B08DA0024A7
:1018E000401C614192185B411A4301D140084000FD
:1018F00010BDF0B51FB482B005460C0003D00846F9
:1019000004F056FA02E004F053FA20300246009048
:1019100021462846FFF76BFF049B059A04460F46B5
:1019200018431143084314D0184610431BD00098A5
:1019300040210A1A18460599FFF769FF05460E4629
:10194000009A05990498FFF752FF084305D001203B
:1019500004E02046394607B0F0BD0020C11705431A
:101960000E432C43374300990E986305401A7905BE
:10197000E40A00220C43FD0A0A3002D50020014689
:10198000E9E70105101969410C9C0D9D0019694199
:10199000FFF7A2FFDFE70000064C0125064E05E039
:1019A000E36807CC2B430C3C98471034B442F7D380
:1019B000FFF784FB786200089862000880B502484F
:1019C00000F061FB80BDC0467C050020F0B581B011
:1019D0000546286881680024042739421ED08168A2
:1019E000394207D081680222114203D18168102256
:1019F0000A43826001F0B8F80646286880683842D9
:101A00000CD001F0B1F8801B0328F6D3686C1021CC
:101A100001436964A86C01242043A864204601B0F6
:101A2000F0BD10B50146486A426C50231A4204D0FA
:101A3000C06B026B0846904710BD01214A02436CFF
:101A4000134343640268D3680324A40223421ED1D3
:101A5000036A002B1BD113680824234217D0936814
:101A6000042423420CD153680C24A3435360FF2267
:101A70000232436C93430B43436400F049FA10BDB8
:101A8000426C202313434364826C0A43826400F057
:101A90003FFA10BD80B5406A416C40220A4342645F
:101AA000816C04220A43826400F0ECFA80BD80B5A8
:101AB000406A00F097FA80BDF0B581B00446206816
:101AC000826803210A400027012A0AD10268012501
:101AD0002A4208D1C2680123DB031A4203D13D46E2
:101AE0002FE03D462DE0826805231340012B19D1DC
:101AF0008268022313438360016001F035F80646D3
:101B0000206880680125284201D13D4619E001F096
:101B10002BF8801B03280DD2206880682842F6D15C
:101B20003D460EE0606C102101436164A06C2843C7
:101B3000A06406E0606C102101436164A06C28433E
:101B4000A064284601B0F0BDF0B581B0044600277E
:101B500000972068816803220A40012A07D10268A1
:101B600001210A4210D1C268C9030A4230D18168FA
:101B70001E4A11420AD0606C102101436164A06CBE
:101B800001252843A0642EE03D462CE08168012514
:101B900029438160DA480068DA49FFF7A3FA01E0D7
:101BA0000098401E009000980028F9D100F0DCFF5A
:101BB00006462068006828420CD100F0D5FF801B43
:101BC000032809D2206800682842F6D03D460AE082
:101BD0003D4608E03D4606E0606C1021014361642B
:101BE000A06C2843A064284601B0F0BD1700008017
:101BF00080B5024800F0BAFC80BDC046C805002090
:101C000010B504460548E0632068054940181421D2
:101C1000FFF768FA8000206410BDC0460000024053
:101C2000F8FFFDBF70B5C46B056C0126AE40666061
:101C30000468636040681028134600D00B46A36018
:101C4000102800D01146E16070BD80B502F046FC5E
:101C500080BD704721480021C161124801680422FB
:101C60000A430260016840220A4302607047C0468E
:101C70001A490022CA610B490A68022313430B6008
:101C800048600868402202430A60704710B5134A52
:101C90000023D361034A136801241C4314600180AC
:101CA00010BDC04610200240B0B526480268002191
:101CB00010231A4205D00949CA6902231343CB6194
:101CC000102103680422134205D0044BDC6901256E
:101CD0002543DD6111430160B0BDC04648070020C7
:101CE000F0B581B0044600F03FFF0546154E306860
:101CF000012738420DD003200090002C1CD0601C1E
:101D000004D000F031FF401BA04217D830683842A1
:101D1000F5D130682021084201D0202030603068A1
:101D20001021084204D1306800220421084206D064
:101D3000FFF7BAFF012202E0009A00E0009AD0B259
:101D400001B0F0BD0C200240F0B583B00446402045
:101D5000215C264640360220012953D001233370EE
:101D60002068816803220292114001290CD1016888
:101D700019423ED1C26825464435616C1F46FB03BB
:101D80001A423B4603D037E0616C25464435019545
:101D900081225200914302220A436264C768C168EB
:101DA000029DA943C1600093D90782680A438260FB
:101DB0002F4000F0D9FE05462068816800290DDA21
:101DC00000F0D2FE401B0328F6D3019A10681221BE
:101DD0008843102101431160012011E0C16839439B
:101DE000C160019D2A680298824300980243002046
:101DF00005E0616C4434254620220A4301202A6014
:101E000000213170C0B203B0F0BD0000F0B585B064
:101E1000002504954022825C044640340223012AB6
:101E200058D0012323700668B26804273A4217D1BC
:101E3000039524C902951F469740304D0193029B9C
:101E40000839AB4212D1B06AB843B062104601996A
:101E500088431028039B3BD1102A33D02B4832E013
:101E6000416C20220A434264012331E01546B26AE4
:101E70003A43B262806B421E072A039F019B2CD219
:101E80002846984310281BD1D8059905102D00D05D
:101E900008467B490A6802430A60102D10D1184891
:101EA00000681849FFF71EF90A214143049104987C
:101EB000002805D00498401E049004980028F9D109
:101EC0003B4605E010486E490A6802400A6000235C
:101ED00000202070D8B205B0F0BD1A079042CFD0D4
:101EE0008868726907210A409042C9D072698A43A2
:101EF00072610840716901437161C1E7011000001E
:101F0000C800002040420F00FFFF7FFFFFFFBFFF20
:101F1000F0B587B0002505950495039502950190CD
:101F200000F090FA2548294601220A40D20002AB6F
:101F30009E1880C89C58E4199C5072686A4172606F
:101F4000491C2829F0D1002602AF1D4D03CF1422D1
:101F50000023083FFFF7F0F8A8530837B61C042EFB
:101F6000F4D12888FF2670431649FFF7BBF8FF28F5
:101F700000D33046144908706888FFF7E1FB134A24
:101F8000134BFFF7B3FA0022124BFFF717FBFFF7D3
:101F900012FCFFF7FCFB104A104BFFF7F5F9024665
:101FA0000B46FFF7F1F9FFF706FC0D4908600349FE
:101FB0002822019800F0F8F907B0F0BD8C08002045
:101FC0002C090020FF0F00003009002066666666BD
:101FD00066660A4000FEAF40D7A3703D0AD7F3BF44
:101FE000DC0600207047000070B504460126002C76
:101FF0003ED0606C0221014361642046FFF7E6FC9D
:1020000005460126012D30D0002D07D12046FFF7CF
:1020100053FD0546012D28D00120606420684168E9
:102020009F22914341600260C168124A0A40C26027
:1020300003218A07036993430361426907239A4393
:102040004261026A0C4B13400362826A0B4B1340DD
:10205000836288050A490A6882430A60204600F0C4
:1020600035F90020A06460642E46402000212154F0
:10207000304670BD00023E8300F000F00000F8FF23
:1020800008270140704710B5044620680268042103
:102090000A4202D042680A4206D10368082213426B
:1020A00034D04368134231D0626C10231A4204D1F9
:1020B00001225202636C1343636403229202C368D9
:1020C00013421DD1226A002A1AD1026808231A423B
:1020D00016D082680A420BD141680C2291434160BC
:1020E000FF200230616C814301200843606407E0F7
:1020F000606C202101436164A06C01210143A16453
:102100002046FFF705FF20680C2101602068026867
:1021100080210A420DD0406808420AD00120000404
:10212000616C01436164204600F0CEF82068802194
:1021300001602068026810210A4214D042680A42F5
:1021400011D0626B012A03D0C26801231A4207D062
:10215000A26C02231343A36401602046FFF792FFA1
:1021600020681021016010BDF0B585B00446012043
:10217000002C6CD025464435606C002806D14020E8
:1021800000212154A164204600F0BAF828681021EB
:10219000084258D1226890680423184253D1812004
:1021A00040002B6883430220184328609068032670
:1021B0003040012807D11368012003420FD1C0032A
:1021C000D36803420BD1D06818239843A368034314
:1021D000D360B007136983436068184310610296A7
:1021E0000391D068364B0340D36001200703636B33
:1021F0000026012B314600D039460491A769BF0360
:10220000E169C9033943236A01935F030F43E1681E
:1022100023693943049F39439B1EF61A5E41B3007C
:102220000B43216B4E001E43616A012914D10199B1
:1022300000290ED0616C20230B436364A16C012341
:102240000B43A36408E02A680A4301202A6005B012
:10225000F0BD012109040E43A36AFF21C2318B4264
:1022600002D03343E66A1E43D1683143D160A76B85
:10227000791E07291FD251690723994351611F40D5
:10228000516939435161D1680E4A0A40B24207D1BF
:102290000020A064616C029A914301220A43D5E7B1
:1022A000616C12229143039A11436164A26C024350
:1022B00048342546CAE701078F42DCD0E3E7C04631
:1022C0001902FEFFE7FF3F837047000010B5044688
:1022D00020683049884200D010BD012040020749E3
:1022E0000A6882430A602D48032100F0C1FAE06BBE
:1022F00000F01FF90C2000F0ADFE10BD18100240D8
:10230000F0B587B0044602A81421FEF75EFF2068EE
:10231000204988423BD101277A0200921E48416839
:10232000114341604168114001910199B90402686B
:102330000A4302600068084001900198032003905E
:10234000029000260496154802A900F017FB144DD0
:1023500014488021FA0220237F0341C52E60696062
:102360000098083D294610318DC1284600F058F9E3
:10237000002801D0FFF76DFCE5636C620C2401219D
:102380000022204600F06EFE204600F067FE07B0F7
:10239000F0BDC04600240140141002400004004873
:1023A000C805002008000240F0B583B0044620684C
:1023B000806802270425284239D14020205C264627
:1023C0004036012833D0012001903070E0690128A7
:1023D000029207D020460F46FFF7B6FB3946074664
:1023E000002F24D10091606C12490140019B18021A
:1023F000084360640027A7643770E06B0E490F4AFA
:102400000F4E8262C162066321681C220A604A681C
:10241000102616434E60CA681A43CA604031009ABB
:10242000029B00F031F920688168294381603846B9
:1024300003B0F0BDFEF0FFFFAF1A0008231A00083A
:10244000951A0008F0B583B004464021605C26462A
:102450004036022501282ED00291012737702046F0
:10246000FFF7B4FA0546002D23D12068C168019713
:10247000B943C160E06B00F021F80546002D03D0A0
:10248000606C02990843606420684168102291439F
:1024900041602046FFF710FB002D019A09D100286A
:1024A000054606D1FF200230616C8143114361640F
:1024B000002500203070284603B0F0BD10B501683B
:1024C0000A680E239A430A600A6801239A430A6045
:1024D000C16B026C1C4694404C6020220021815448
:1024E00021228354084610BDB0B52121425C01462B
:1024F0002131022A18D1026813680E24A343136005
:1025000013680124A3431360C26B036C25469D40EE
:1025100055600C70202200218154426B002A01D0AA
:10252000904700210846B0BD04218163012108467F
:10253000B0BD70B504460125002C15D02068016897
:102540000126B14301600025056045608560C560D6
:102550002046FFF755FBE06B216C8E404660202043
:102560002554A56321202554284670BDF0B581B0BF
:10257000C16B036C00910C680268156804210F465A
:102580009F403E4626400D4210D0002E0ED01368CC
:102590002024234202D113688B43136000994F60BB
:1025A000C16A002939D0884701B0F0BD02269E409B
:1025B00031462140AF0716D5002914D011682023D9
:1025C000194206D111680A24A14311602121012278
:1025D000425400994E600021C154816A00291CD0E8
:1025E000884701B0F0BD08269E402640290714D533
:1025F000002E12D011680E24A143116001210A4659
:102600009A40009B5A602022002383548163212238
:102610008154016B002900D0884701B0F0BD000053
:10262000F0B585B004460120002C29D02121049169
:1026300002206054C2CC23686568A0680190E068FD
:1026400002902069039008680E4A024032433A43E0
:102650001A432A4301980243029802430398024313
:102660000A600C3C2046FFF7CBFA20210020605482
:10267000A0630121049AA154A062E0622063606318
:1026800005B0F0BD0FC0FFFFF0B581B004462020BB
:10269000265C204620300225012E29D00125057018
:1026A0002126A75D26462136012F12D10220307047
:1026B0000020A06320680668AE4306602046FFF74E
:1026C000B1FAE26A20680168002A06D00E2211439E
:1026D00009E00021017002250AE00A22114301608D
:1026E00001680422914301600168294301600025CB
:1026F000E8B201B0F0BD0000F0B583B00F46064669
:102700004D49087E0225012840D001250D76346808
:102710004A48FFF7E5FA012C0DD1002833D1FFF725
:1027200099FA4648FFF7DCFA054645480168042255
:102730009143016027E0002825D10021C84302977A
:1027400038607768B0688002C01987421BD2019157
:102750003B4C3846FFF78CFA3848FFF7C1FA05467C
:102760002068022188432060002D0AD101208002C8
:102770003F187068B168890208188742E9D3019D43
:1027800001E00298076000202B490876284603B034
:10279000F0BDC0462A48016880220A43026000203A
:1027A0007047C046F0B583B01C4617460546224A1E
:1027B000137E0220012B3CD0029101200190107663
:1027C0001E48FFF78DFA002830D104200090022D1A
:1027D00000D10095012D00D100950022154613016E
:1027E0003E463946D9402020C71A2046B840084303
:1027F000203B2146D940002B00DA014689B2500027
:10280000029A8018FFF742FA0C48FFF769FA0C4960
:102810000B461968019A914319606D1C002805D177
:10282000EAB20020009991423746D8D80021024AE6
:10283000117603B0F0BDC0464807002050C3000029
:10284000102002400748C1688022114201D10020B7
:1028500070470549016005490160C068C109012050
:10286000084070470420024023016745AB89EFCD43
:10287000F0B58AB0079000297DD0AB4A03200090C4
:102880000520079B934200D000900023D843099075
:102890001D461E4601910127B74038460840069064
:1028A000002861D0032403940495AC400998444067
:1028B00007990868204008601C251D4008960F22D3
:1028C0001046A840099D684075080593994B1D4026
:1028D000059B4D192E6A06402E62079EB068204067
:1028E000B06009984740706838407060F0682040D8
:1028F000F0600C271F40BA400898039988438F491D
:10290000445803921440401802900920C006002544
:1029100086420BD08A480799814206D08948079998
:102920008142009D02D1022500E00125BD40AC425C
:102930000199049D089E17D1099C039A6240029F49
:1029400038681040089E3860069F67407748044604
:10295000206838402060606838406060A068384077
:10296000A060E0683840E060761C0846F0401B1D1F
:10297000AD1C00288FD10AB0F0BDC046F0B58CB0B8
:1029800006460A68002A00D1CCE0674B032000907D
:1029900005209E4200D000900027F84306900120B9
:1029A0003B460290044605910796601E029D0990E1
:1029B00085402A40002A00D1ABE00392049408939A
:1029C000069A4C681020204312280A9712D11C2026
:1029D000089B18400F2484405440099B5B08554FC6
:1029E0003B40F3181F6A27400C6984403C430A9F10
:1029F0001C624C68032023460340BB400190B84052
:102A00005040376807401F433760122C1DD8012300
:102A10001F46A7403246484E3742164615D0B76883
:102A200007400599CE680A998E403E4307998E600B
:102A300026091E4009998E4006994D4007994B681A
:102A40002B403343079E05997360F3680340886801
:102A50000A9FB8401843F060E000089B049C039A6A
:102A600057D533480146086801252843086008689F
:102A700028400B900C2018400F23834006994B40B0
:102A8000099F01998F430B992C490C4639591940DC
:102A90003C190923DB0600279E4209D0F04B9E42D9
:102AA00005D0284B9E42009F02D1022700E001275B
:102AB00087400F4327601046069948401B4C276803
:102AC0003B46034017432E0405994968314200D024
:102AD0003B46236067683B46034017436E04314220
:102AE00000D03B466360A7683B46034017432E0572
:102AF000314200D03B46A360E36818401A436B059F
:102B000019420599079E00D01046E0600A9F089B75
:102B1000049C0A681046E040BF1C1B1D641C002872
:102B200000D042E70CB0F0BD000C004800040140AA
:102B300018100240FCFFFF7F06000600080001405D
:102B4000000400480008004802690A400120002AE9
:102B500000D110467047034628331830002A00D0B1
:102B60000346196070470000014800687047C0467E
:102B70003409002070B54122835C024641320224B0
:102B8000202B1AD14023C55C03464033012D14D0BD
:102B900024241470006804680125AC4304602C03ED
:102BA0000668A643066004680C4304600168294374
:102BB00001602020107000241C70E0B270BD70B560
:102BC0004122835C024641320224202B1AD1402349
:102BD000C55C03464033012D14D0242414700068D2
:102BE00004680125AC4304600F2424020668A64350
:102BF00009023143016001682943016020201070FF
:102C000000241C70E0B270BD70470000B0B50D46E6
:102C10000446C14800682168814200D0B0BD41200F
:102C200020212154284602F00BFD002D09D00B482D
:102C300002880B49204600F09FF9B8480121017035
:102C400004E0AD491022204600F06AF9206808210E
:102C5000C161B14800F056F8B0BDC04688080020F8
:102C600078080020B0B504460120002C12D0412580
:102C700024206055206801680122914301602046AC
:102C800000F0D2F800206064605540216054206359
:102C900042216054B0BDF0B581B001688B690C6809
:102CA00080222240012425022B4205D0002A03D095
:102CB000466C26434664CD61A5025E0506D5002A12
:102CC00004D0466C082737434764CD6164029B05F6
:102CD00006D5002A04D0426C022313434364CC611E
:102CE000416C0B22114202D0416C01F04BF801B053
:102CF000F0BD80B5026891691268436B002B00D06B
:102D0000984780BD80B54121435C01464131022294
:102D1000202B07D128220A70AD494163042100F01D
:102D200073FF0022D0B280BD10B57B4C21680068D3
:102D3000884200D010BD2046FFF7E4FF0120C00309
:102D400021684A6802434A6010BDC046F0B581B0B0
:102D500004460120002C45D04120205C2546413509
:102D6000002805D1402000212154204600F07AF8A7
:102D7000242028702068026801218A4302600F2203
:102D800012066368934303618368174A13408360A4
:102D9000CE0321239F02E368012B00D03E46A768A3
:102DA00037438760022B01D1CB02436043680F4E4B
:102DB0001E434660C3681340C360226963691343BE
:102DC000A26912021A43C260E269236A13430360D4
:102DD00002680A4302600020606420212970206399
:102DE0004221605401B0F0BDFF7FFFFF0080000270
:102DF00010B54949096802688A4200D010BD474CA5
:102E00002178012906D0008D1021081A81B23A4894
:102E100002F018FC002020703F48FFF773FF10BD40
:102E20007047704770477047B0B5006827498842BF
:102E300000D0B0BD0125A80508490A6882430A6090
:102E4000A902244C2046FFF713FDE9022046FFF7B4
:102E50000FFD182000F0FEF8B0BDC0461C10024067
:102E600000040048B0B586B0044601A81421FEF75E
:102E7000ACF920681549884226D10125A804144CD4
:102E800021680143216021680140009100981220CF
:102E900002900395059503200490800201900D484F
:102EA00001A9FFF76BFDA805A1680143A160A16816
:102EB0000140009100981824002120460A4600F0A5
:102EC000D1F8204600F0CAF806B0B0BD0058004066
:102ED000141002400004004880B50F4909680068DA
:102EE000884200D080BD0448102102F0ABFB0A48A4
:102EF000FFF708FF80BDC0464C08002080B506499A
:102F000009680068884200D080BD04480021017033
:102F10000148FFF7F7FE80BD0C0600208A0800205C
:102F2000F0B581B04123C35C054641350224202B16
:102F30001ED14023C65C03464033012E18D0222404
:102F40002C70422420250555002444640125ED03FE
:102F500006687768AF437760428541621C494163E8
:102F6000418D1C4AC26201851C70062100F04CFE96
:102F7000E0B201B0F0BDC046F0B581B04123C35C02
:102F8000054641350224202B1ED14023C65C034652
:102F90004033012E18D021242C70422420250555C1
:102FA000002444640125ED0306687768AF43776029
:102FB0004285416206494163418D064AC2620185EC
:102FC0001C70052100F020FEE0B201B0F0BDC0464B
:102FD000D54100080000FFFF02480168491C01605C
:102FE0007047C0463409002010B5794801681022A6
:102FF0000A4302600024204600F004F800F014F8B0
:10300000204610BDB0B5044600F0E8F87D21C900A7
:10301000FEF768F800F020FB0025E84321462A4629
:1030200000F020F82846B0BD82B0094801680122AE
:103030001143016001681140019101991107426833
:103040000A434260406808400090009802B0704710
:103050001810024080B501F0D3FC80BD80B501F0AE
:10306000D9FC80BD80B501F0DFFC80BD01F0FCFC27
:10307000F0B581B00D46564A116801242140A9429D
:1030800009D211680126B14329431160116831400A
:10309000A94200D098E00168634B0222114207D098
:1030A0001A68F0239A43836813435F4A13605E4BA8
:1030B0000090C90729D14649086801263040A84236
:1030C000009A07D90868B043284308600868304070
:1030D000A84279D11078400706D507200002196868
:1030E0008143D068084318601C4600F07DF82168D1
:1030F00009090F220A403849895CC84039490860EB
:1031000000263046FFF77EFF5EE0009F79680129C8
:1031100007D10320C043185801267204104253D02F
:103120000BE00322D2439A58022903D1920126468A
:103130004AD502E09207264646D518680326B043D2
:10314000084318601C46FFF70FFD394607464868DC
:10315000022815D0344B012826D118680C210C46C2
:103160000840042805D1A6E72F4B18682040042802
:10317000A1D0FFF7F9FCC01B16498842F4D923E01F
:1031800020680C2122460C4608400828134692D09D
:10319000FFF7EAFCC01B0F49884215D8224B18687C
:1031A00020400828F4D186E718680C24204205D175
:1031B00081E71D4B1868204200D17CE7FFF7D4FC63
:1031C000C01B04498842F4D9F0B201B0F0BDC0463A
:1031D0000020024088130000685E00080148006873
:1031E0007047C046C8000020B0B50F4A11680C23D4
:1031F0000B400E48082B0DD18C0C0F231C400CA546
:103200002C5D926A01252D04294205D110484443C2
:103210002046B0BD0446B0BD1A4009A1895CFDF747
:1032200061FF44432046B0BD0410024000127A0002
:1032300002030405060708090A0B0C0D0E0F1010F7
:103240000102030405060708090A0B0C0D0E0F10F6
:1032500000093D00F0B585B003900078C007FB4E33
:1032600052D071680C200140042908D071680140D7
:1032700008290ED1012000047168014209D0012003
:10328000410432680A423FD00399496800293BD182
:103290008AE10398426801204704002A0BD0012AE2
:1032A00005D03168052A1BD1820411433160010425
:1032B000306808431AE0010432688A4332608004AF
:1032C000316881433160FFF74FFC05463068384272
:1032D0001AD0FFF749FC411B03206429F6D963E1AA
:1032E0000204914331608104306888433060FFF705
:1032F0003BFC05463068384206D1FFF735FC411BE0
:1033000003206429F6D94FE103980078800739D566
:1033100071680C20014223D071680140082904D152
:1033200001200004716801421AD00398C168306816
:10333000002900D1AEE0012108433060FFF714FC02
:10334000054630680224204203D013E03068204252
:1033500010D1FFF709FC411B03200229F6D923E114
:1033600030680221084205D00398C1680120012974
:1033700000D019E13068F821884303990969C90030
:10338000014331600398007800072ED50398C16986
:10339000706A002914D0012108437062FFF7E4FB32
:1033A0000546706A0224204203D01EE0706A204263
:1033B0001BD1FFF7D9FB411B03200229F6D9F3E00B
:1033C000012188437062FFF7CFFB0546706A022433
:1033D000204203D109E0706A204206D0FFF7C4FB07
:1033E000411B03200229F6D9DEE00398007840074C
:1033F00000D483E001231907F0690022084207D1B5
:10340000F0690843F061F0690840049004980122D3
:1034100000A80EC01C028E4F386820420FD13868B9
:1034200020433860FFF7A0FB05463868204206D1EC
:10343000FFF79AFB411B03206429F6D9B4E00398F7
:10344000816800290BD00129029A05D0306A05292C
:1034500036D1042108433062306A104335E0306AC7
:10346000029988433062306A042188433062FFF752
:103470007BFB0546306A0224204238D0754FFFF7A7
:1034800073FB411B0320B94200D98DE0306A204212
:10349000F5D12CE0012188433060FFF765FB05463C
:1034A00030680224204204D16CE73068204200D109
:1034B00068E7FFF759FB411B03200229F5D973E0A8
:1034C00090433062306A042188433062FFF74CFB3E
:1034D0000546306A0224204209D15E4FFFF744FBC3
:1034E000411B0320B9425FD8306A2042F6D00198D0
:1034F000002803D0F06900998843F06103980078B0
:10350000C00645D503984169012919D1706B042182
:1035100001437163706B012101437163FFF724FB69
:103520000546706B0224204203D00FE0706B2042EE
:103530000CD1FFF719FB411B03200229F6D933E018
:10354000706B491D0BD1042188437063706BF821A7
:10355000884303998969C9000143716318E0042114
:1035600008437063706B012188437063FFF7FCFAB6
:103570000546706B0224204203D109E0706B2042A3
:1035800006D0FFF7F1FA411B03200229F6D90BE020
:103590000398046A0020002C06D0029070680C2169
:1035A00001400120082902D1C0B205B0F0BD0120C0
:1035B000020631680192914331604706FFF7D4FA61
:1035C000054630683840022C31D10028019C08D0D3
:1035D000FFF7CAFA411B03200229E5D830683842B8
:1035E000F6D1F06A0F218843039AD16A0143F16250
:1035F0003D20000471688143906A0843516A014389
:103600007160306820433060FFF7AEFA04463068DE
:10361000384201D00298C7E7FFF7A6FA011B032042
:103620000229C1D830683842F6D00298BCE7002899
:103630000AD0FFF799FA411B03200329B4D230685E
:103640003842F6D10298AFE70298ADE70010024089
:10365000007000408813000080B501F0A5FD80BD1A
:10366000F0B53C22845C02463C320223012C26D079
:103670003D230224C4543F242402CD68A5430F24D3
:10368000A6028F68B7432F431F25ED024E68AE4355
:103690003E4324030D68A5433543072464030E69A4
:1036A000A6432E434C6934430325AD03AC438969DB
:1036B0002143046861640121C15400231370D8B20E
:1036C000F0BD70B53C22845C02463C320223012CE2
:1036D00017D03D230224C454046865687026B5439E
:1036E00065600D6866682E436660A5688026B543F0
:1036F000A5604968A5680D43A5600121C154002358
:103700001370D8B270BDB0B504460120002C14D09F
:103710003D20205C25463D35002805D13C20002178
:103720002154204600F01EF80220287001CC2146CA
:1037300001F0A2FD012028700020B0BD01681948E9
:10374000694A914206D0164A914207D10221C943E3
:10375000001D00E0024902680A4002607047C0464E
:10376000FFF7FFFF82B000680D4988420DD05E4927
:10377000884213D10120C0020A490A6802430A6044
:10378000096801400191019808E006484168022259
:1037900011434160406810400090009802B07047AB
:1037A0000004004018100240F0B581B004463C20EF
:1037B000225C26463C360220012A6AD00127377057
:1037C0003D200222225420688268334B13408360DC
:1037D00025463D350A684F2A0EDC1F2A1BDD202AAC
:1037E0002AD0302A2AD0402A50D1CA68496801F02C
:1037F00085FE2068402147E06F2A12DD702A1FD025
:103800007B039A422AD039038A423FD1816807223A
:10381000914381603AE0002A2ED0102A36D110213F
:1038200032E0502A2AD0602A30D1CA68496801F0B3
:1038300076FE2068602127E0202125E0302123E06A
:103840004A6800928A68CB681146009A01F069FDC7
:103850002068816877220A43826017E04A680092F4
:103860008A68CB681146009A01F05BFDB8032168B5
:103870008A6802438A6009E0002105E0CA68496855
:1038800001F03CFE2068502101F056FD2F70002011
:103890003070C0B201B0F0BD8800FFFF10B586B037
:1038A000044601A81421FDF790FC20680E498842C7
:1038B00017D1012040040D490A6802430A600968D3
:1038C000014000910098022002900F21090201910D
:1038D00000210391049105900920C00601A9FFF77A
:1038E0004DF806B010BDC046002C01401410024037
:1038F000F0B581B00C4605463C20295C2E463C368E
:103900000220012957D0012333703D200221295480
:10391000CA412F463D37032A4AD800937A44127988
:1039200052009744011020312868214601F00CFD17
:103930002868816908220A438261816904229143CF
:10394000816118301DE02868214601F031FD009B9F
:10395000D902286882690A438261990282698A438E
:10396000826118301FE02868214601F057FD286861
:10397000C16908220A43C261C16904229143C1613D
:103980001C302169009B10E02868214601F086FD6B
:10399000009BD9022868C2690A43C2619902C269C0
:1039A0008A43C2611C302169090202680A4302602D
:1039B0003B7000203070C0B201B0F0BDB0B504461D
:1039C0003D200221215425463D352068016A3F4AA9
:1039D000114207D1016A3E4A114203D10168012216
:1039E00091430160204600F020F8002028703C211F
:1039F0006054B0BDB0B504460120002C14D03D2069
:103A0000205C25463D35002805D13C20002121546D
:103A1000204600F00BF80220287001CC214601F06E
:103A20002BFC012028700020B0BD704770470000BB
:103A3000B0B5054628680124224601F067FC2868D5
:103A4000214941180A22D141072908D822468A4033
:103A5000E1210A4203D0E103426C0A434264016857
:103A6000214301600020B0BDB0B5044620680022AB
:103A700001F04CFC2068144943180A21CB4113493A
:103A8000072B10D8012215469D40E1231D420AD084
:103A9000036A0B4207D1036A0D4D2B4203D1D203B7
:103AA000436C93434364026A0A4207D1016A084A9D
:103AB000114203D101680122914301603D2001219F
:103AC00021540020B0BDC04600D4FEBF111100003B
:103AD00044040000FEE7000080B5072000022149F1
:103AE00009688969014203D01E48FFF7D4F880BDF8
:103AF0001C48FFF7FEF880BDF0B583B01F461446A2
:103B00000D4602901348006800280BD00197074625
:103B100038690028FBD1142002F070F906463E6196
:103B2000019F05E0142002F069F906460948066085
:103B300002983070002030617560377374732046CE
:103B400002F05CF9B06029462246FDF725FB03B080
:103B5000F0BDC0464808002080B50248FFF7D2F803
:103B600080BDC0460C06002080B50121C903406A13
:103B7000026853680B435360816B00224A63C16B38
:103B80004A634121425C01464131602A04D120222E
:103B90000A70FFF739F880BDFFF7C6F880BDB0B5F1
:103BA00000220123194208D04122825C28241440BB
:103BB0004222F223282C00D01A468B0701D4134648
:103BC00009E04123C35C28251D404423F424282D0B
:103BD00000D02346134311240C40B8221A43042575
:103BE000294200D0134690221A43112C00D01A46C5
:103BF0006023134312242140122900D01346006889
:103C0000016899430160B0BD10B54A07D317B822C7
:103C10001A40436B144CA34212D0144CA3420FD051
:103C2000F22313430124214200D01A46F423134304
:103C30000224214200D01A4620241443134608E0EF
:103C400011240C4090231343112C00D01346602400
:103C50001C4312221140122900D01C460068016842
:103C60002143016010BDC046B54000087141000805
:103C7000006881690222114201D0002181628269BB
:103C800001210A4202D182690A4382617047000021
:103C9000F0B581B004464120205C28210140204637
:103CA0004130282923D120688169090C01250D4064
:103CB0008369826832491140C668FE2700973E40FA
:103CC0001F0CE368022B30D1D2097A405207920FC1
:103CD00042D004212046FFF762FF402000212154FA
:103CE000204629463246FEF791FF01B0F0BD01782B
:103CF0002068222929D18669856907212046FFF796
:103D00004EFF20681021C16140200021215420462F
:103D1000FFF76EF8300C01210140280CFE22024012
:103D20002046FEF773FF01B0F0BD04212046FFF7E7
:103D300036FF4020002121540098074020462946A4
:103D40003A46FEF763FF01B0F0BD0821C161402093
:103D50000021215401B0F0BDA26C521CA264A26CDF
:103D6000022AF7D10022A2640823C3614020225412
:103D70008AB220462946FEF749FF01B0F0BDC04691
:103D8000FF03000070B50446422000262654B348C5
:103D9000E0626685606C084360644120205C2546D3
:103DA0004135282805D02878292802D028782A28C3
:103DB0003FD103212046FFF7F2FE26482821297033
:103DC00060632663206806680168012293031E422F
:103DD0000DD109041BD42878602834D12020287004
:103DE0004020002121542046FEF70EFF70BD99436C
:103DF0000160A06B18494163402100226254FEF724
:103E000073FB002825D0A06B416B884770BDD103A0
:103E100002688A430260E06B0F494163402100223F
:103E20006254FEF761FB002813D0E06B416B8847BA
:103E300070BD07212046FFF7B2FE287820216028B8
:103E40003046BCD1BCE74020002121542046FEF77B
:103E50006BFF70BDD5410008693B0008B0B5044652
:103E60007E48E06200252563412020222254422022
:103E700025546563480711D52068406A616A4A1C69
:103E800062620870208D002808D0618D491E61850E
:103E9000401E2085606C0421014361640721204697
:103EA000FFF77DFE20681021C16140202554204687
:103EB000FEF79EFFB0BDC04670B5044620682026C0
:103EC000C6614268644B1340436000252563656307
:103ED000624AE262C90605D51021C161606C042105
:103EE000014361642046FFF7C3FE03212046FFF72C
:103EF00056FE606C002805D14120215C20464130EF
:103F0000602904D1616C2046FFF73CFF70BD017849
:103F100021290BD10670402025544220215C2554D4
:103F20002046402911D1FEF77EFF70BD017822297D
:103F300010D10670402025544220215C2554204693
:103F4000402905D1FEF76EFF70BDFEF76AFF70BD18
:103F5000FEF766FF70BDC046F0B581B00E46044660
:103F6000206820210091C1610821C16107212046FC
:103F7000FFF715FE0125EF032068416839434160D2
:103F80004168354A0A4042602046FFF771FE2068CA
:103F90000168AA03114202D1016839420CD04121C3
:103FA000635C2146383122463C32212B00D0114639
:103FB0000968096849686185618D002903D0616CD1
:103FC00004220A436264710710D5406A616A4A1C80
:103FD00062620870208D002808D0618D491E6185BD
:103FE000401E2085606C0421014361640020206331
:103FF000422160546063616C00290DD0616C2046E1
:10400000FFF7C0FE4120205C282823D120463146FE
:10401000FFF724FF01B0F0BDE26AB6498A420CD135
:10402000402160544120215C009A225420462229DC
:104030000ED1FEF751FF01B0F0BD4022A054E16265
:104040004120009921542046FEF7D2FE01B0F0BD78
:10405000FEF754FF01B0F0BD00E800FE0000FFFFD6
:10406000B0B504464220002525544120215C20465D
:10407000413029290DD128210170212020630121FF
:104080002046FFF78CFD402025542046FEF736FFE2
:10409000B0BD01782A290CD128210170222020638B
:1040A00002212046FFF77BFD402025542046FEF7E5
:1040B00013FFB0BDF0B581B004464020265C254614
:1040C00040350223012E15D001262E700B461340D9
:1040D000DF0612D520681021C161606C0421014304
:1040E000616412212046FFF78FFD2046FFF7C0FDD7
:1040F00000232B70D8B201B0F0BD02400F062BD5C3
:10410000002A29D021680A6882430A60608D00284D
:1041100028D04968814808403306618DFF22FF2975
:1041200001D87306628D228500216F46396081B205
:10413000D2B2204600F0E0F8208D618D081A60852B
:104140004120225CF003B103222A00D008462168F6
:104150000A6802430A60CBE79806C9D52046FFF7F4
:10416000ABFEC5E740212046FFF70CFEC0E7C04686
:10417000B0B54023C55C044640340223012D26D04F
:10418000012323700A40D30615D54121435C014623
:10419000383102463C32212B00D0114609680968AB
:1041A000496802681023D36100290ED0416C0422B3
:1041B0000A43426409E0130703D500680821C1617E
:1041C00003E0920601D5FFF7C7FE00232370D8B2A3
:1041D000B0BD0000F0B581B016460C460546402043
:1041E000295C2F4640370220012963D00120387016
:1041F0002640F1060CD5698D002922D028681021AF
:10420000C161686C042101436964B0064CD44FE07D
:1042100071073CD5688D00280BD02868406A696A10
:104220004A1C6A620870288D401E2885688D401ED1
:104230006885688D002835D1E86A2E49884220D1EA
:1042400030E04006E96A814202D0E96A81420AD13F
:104250004120285C282806D128462146FFF7FEFD8C
:10426000B00621D424E0E86A2249884217D04120D0
:10427000285C292813D128681021C1612846FFF73E
:10428000F7FC2846FFF7ECFEB0060DD410E031072E
:1042900013D52846FFF7FCFCB00605D408E02868D3
:1042A0001021C161B00603D528462146FFF754FE10
:1042B00000203870C0B201B0F0BDB107F2D5698DF1
:1042C00000290ED0686A411C6962296800788862FA
:1042D000688D401E6885288D401E2885B006E3D471
:1042E000E6E70006E96A8142CBD0E86A0028D9D126
:1042F000C7E7C0460000FFFFB0B500684468064D40
:104300002540064C0C401C4311042143049A0A43E7
:104310002A434260B0BDC046009800FCFF03000085
:1043200010B581B000210E4A0846104303680120F1
:1043300044070B51091DC029F6D10A490A680243F6
:104340000A6009680140009100980748016803224B
:104350009143016001681143016001B010BDC04686
:10436000001000081810024000000140AC48002175
:10437000016041608160C1607047C046B0B51448BB
:104380001F210160FE21416000242046214600F0EB
:10439000A1FC0120214600F09DFC0220214600F0F6
:1043A00099FC0320214600F095FC0A4D2846214641
:1043B000FFF73EFB04212846FFF73AFB0821284679
:1043C000FFF736FB0C212846FFF732FBB0BDC04695
:1043D000282C014058060020F0B585B00920C043C4
:1043E00002900021A74A8E4B0F460191019801C30C
:1043F00004931070A248C519032068700120A870AA
:104400000F24EC707F262E720A2303936B72A8721E
:10441000EC72681C2E4B58505818AC1CEB1C4460B6
:1044200083602B4609332B4C635063182C460A34A7
:104430000B355C609D601646029AD41C07254561C9
:104440008461039858619A61049B3246521C0D376F
:104450001C31342FCAD120278A4904260825384622
:1044600032462B46FFF748FB30206D4910223B4671
:10447000FFF742FB4020184932462B46FFF73CFB32
:1044800050200D267E4C214632462B46FFF734FB4A
:1044900021460D31602032462B46FFF72DFB214689
:1044A0001A31702032462B46FFF726FB2734802036
:1044B000214632462B46FFF71FFBFFF74DFBFFF768
:1044C0005DFFFFF753FF00F063FB05B0F0BDC04692
:1044D00068070020D80700207308002010B582B0BC
:1044E0004C48006801904C4800680090E24802780F
:1044F0004A480168002A45D009060DD50199019A5C
:1045000052084A40510902220A4045490B689A184C
:10451000521E0A60802101600168202211420DD0E4
:104520000199019A52084A40D10802220A403C49A6
:104530004B689A18521E4A6020210160012109022D
:1045400002680A420CD0009A5208009B5340DA09D4
:1045500002231340324A9468E3185B1E93600160A3
:1045600001684022114253D00099009A52084A40F3
:10457000510902220A402A49CB689A18521ECA6081
:10458000402144E049060DD50199019A52004A4064
:10459000910902220A4022490B689A18521E0A60A9
:1045A000402101600168102211420DD00199019A49
:1045B00052004A40110902220A4019494B689A18D0
:1045C000521E4A60102101600121490202680A421C
:1045D0000CD0009A5200009B53401A0A0223134049
:1045E0000F4A9468E3185B1E9360016001688022A3
:1045F00011420DD00099009A52084A4051090222F6
:104600000A400749CB689A18521ECA60802101608F
:1046100002B010BD1000004810040048140401400E
:1046200060050020F0B581B0154C164D00F0D4FAAD
:1046300000F098FD002627463878012803D1F0B213
:1046400000F054FA05E03878022802D1F0B200F008
:1046500039FD0D37761C042EEED1287841B20020AA
:1046600000F038FB0120295600F034FB02202956C7
:1046700000F030FB0320295600F02CFBD6E7C046A3
:1046800028050020F006002010B584B01B4800214A
:10469000012404221A4B036041608160C1600461FF
:1046A00042618161C161FF22C23204624162826261
:1046B000C16204634463039102910191FDF754FDCB
:1046C000002801D0FDF7C5FA0820019007200390CB
:1046D00020030290094801A9FDF798FB002801D0AA
:1046E000FDF7B7FA09200190044801A9FDF78EFBF8
:1046F000002801D0FDF7ADFA04B010BD7C05002004
:104700000024014010B582B05A48026801210A43D2
:1047100002600068084001900198092400222046A8
:10472000FEF7A0FC2046FEF799FC02B010BDC04683
:10473000F0B589B0002408940794069405940127E5
:1047400078044C490A6802430A600A6802400392EE
:104750000398B8040A6802430A600968014003919B
:10476000039845480578454845492246FEF7F3F940
:104770000920C606F903304600912246FEF7EBF900
:1047800050200490052081010191C00102903D4814
:10479000002D31D00694059404AD30462946FEF72D
:1047A000EDF838480590A020049006973046294639
:1047B000FEF7E4F8059732480490069407942F48D2
:1047C0002946FEF7DBF805970098049006940794B5
:1047D00030462946FEF7D2F82A4805900198049001
:1047E0000697264E30462946FEF7C8F805940298EB
:1047F0000490069430462FE00697059004AD3046AD
:104800002946FEF7BBF80594A02004900694304694
:104810002946FEF7B3F805971948049006940794C3
:1048200016482946FEF7AAF80597009804900694C2
:10483000079430462946FEF7A1F8059401980490A4
:1048400006940E4C20462946FEF798F80D48059030
:1048500002980490069720462946FEF78FF8072411
:10486000012100222046FEF7FDFB2046FEF7F6FB65
:1048700009B0F0BD141002405C050020000400489F
:1048800038F000000000311070B594B0002413948B
:104890001294119410940F940E9407A81C25294685
:1048A000FCF793FC68462946FCF78FFC3748BB2190
:1048B000374AFE23026041608460C3600461446142
:1048C0008461FEF720FF002801D0FDF7C2F9012620
:1048D000300310902D4810A9FEF766FF002801D084
:1048E000FDF7B7F92948FFF785F8002801D0FDF753
:1048F000B0F90F940E9425480EA9FEF7E2FE0028A9
:1049000001D0FDF7A6F908946020079002200990D5
:104910000A940B940D9430020C901C4807A922466F
:10492000FEF7E6FF002801D0FDF793F9174807A925
:104930000422FEF7DDFF002801D0FDF78AF91348B5
:1049400007A90822FEF7D4FF002801D0FDF781F95E
:104950000E4807A90C22FEF7CBFF002801D0FDF777
:1049600078F96D4614212846FCF72FFC0694700355
:10497000059006482946FEF773FE002801D0FDF792
:1049800068F90248FEF78AFF14B070BD580600208F
:10499000002C014010B586B00024059404940394C3
:1049A00002948C4813498461134A2F231CC0016070
:1049B0004460019400940C38FEF7A5FE002801D055
:1049C000FDF747F9012000030290824802A9FEF793
:1049D000EBFE002801D0FDF73CF9019400947D48DE
:1049E0006946FEF76EFE002801D0FDF732F906B0E9
:1049F00010BDC046204E000000040040704700007B
:104A00001F21014001208840014908607047C046CD
:104A100080E100E01F210140012088400149086039
:104A20007047C04600E100E0002805DB0322034692
:104A300093430B4A9A1806E00F220240083A0323D8
:104A40009A43084BD218C000182303408801C0B213
:104A50009840FF21994013688B43034313607047CC
:104A600000E400E01CED00E0BFF34F8F0348044971
:104A70000160BFF34F8F00BFFDE7C0460CED00E0C3
:104A80000400FA05B0B5891A4268127853B24B4354
:104A9000046942691B19934200DB134682699A42FA
:104AA00000DC1A4602618368C4681B7805682D78AB
:104AB000C16068B248438018091B5AB24A43801843
:104AC0000849012200248842134600D32346C51713
:104AD000002D00DB2246002D00D01346002B00D114
:104AE0000846B0BDFFFFFF7F70470000F0B581B002
:104AF0000446A600204887598519FEF735F88742F5
:104B000038D2FEF731F80A3028600D2060431B4987
:104B10000D18287969790A020243A879E97909020E
:104B2000014309041143164882598B1A8219012B3B
:104B300006DC10680B1A0120C6430020B34206DCD5
:104B40001C2060430F4B18181268FFF79BFF294683
:104B500008312A7A52422B7A9842034600DB0B78BE
:104B60000D78934201DA684202E0A84200DB08783F
:104B70000549085501B0F0BDD800002028050020E7
:104B80006005002068070020F00600207047000044
:104B9000B0B50020FF212B4A294B11541954401C59
:104BA0000228FAD100202649022208242346FEF7D3
:104BB000A3FF2249042210200346FEF79DFF054D66
:104BC00028462146FEF734FF0C212846FEF730FF29
:104BD000B0BDC04698060020F0B581B00024164D47
:104BE000164E174B174A185D115D884202D128886E
:104BF0002F460DE0195DE0B200F00AFA104B185D87
:104C0000104908553088288061000B4A57180D4A12
:104C10003188814209D03188E0B200F01DFA094A9A
:104C2000074B185D105530883880B61CAD1C641CCD
:104C3000022CD8D101B0F0BD64080020600800202B
:104C40005C0800205E08002003283DD878440079E5
:104C500040008744010C1B2A0120C307820700295A
:104C600000D113461A4A13608303C00309E00120F0
:104C700043070207002900D11346154A13600303B6
:104C80004003002900D1034613607047012042050C
:104C90000005002900D102460D48026010222023A1
:104CA000002900D11A46026070470848084A0029C6
:104CB00005D00121CB041360C903016070470121B5
:104CC000C9070160082010607047C04618000048FE
:104CD00018040048F0B587B00D4604460D20604327
:104CE000BC49085C002817D0012D00DA94E00021AF
:104CF0002046FFF7A9FFFF2068437F21FCF708FA51
:104D0000C2490A1D032C00D94DE1C0467C442479D8
:104D10006400A7449B9A979901210846A040AE4A97
:104D200012781042E0D06600AC4A9553AC4B98190B
:104D30009219049206969A5FAA421DD05642002A02
:104D4000134600DA3346152B10DB6942002D2B4643
:104D500000DA0B460221152B08DB0321012D01DBB4
:104D6000002A03DB002D03DA012A01DB9D4A1155DD
:104D700061009D4A55520580A70000F0F9FE9B494D
:104D8000C8519B4EF159401AFCF7D3FC9949FCF7E6
:104D900080FA9949C851F6199449CF199149095D8A
:104DA000002956D095490546FCF78EFC002800D016
:104DB000F9E003950597029691480568002D00D10A
:104DC0009EE090480699465E0498008800B20090E4
:104DD000801BFCF7A3FC0399FCF798FA0746A20096
:104DE00089498F50B1B201912846FCF7A2FC0646D2
:104DF000049738463146FCF759FC002864D10198E5
:104E000000B2FCF78BFC054603983146FCF741FAEB
:104E10002946FCF7E5F96EE001212046FFF714FF73
:104E2000FE20C04368437F21FCF772F977490A1DD1
:104E3000032C00D9B7E0C0467C4424796400A74421
:104E4000050401030C3100E008310A46C0B21060CD
:104E5000A9E0059737466D4E012D19DB002120464C
:104E6000FFF7F2FEFF2068437F21FCF751F9311D67
:104E7000032C00D988E0A20001A3D2589746C0466F
:104E8000854F0008834F0008C54E0008814F000879
:104E900001212046FFF7D8FEFE20C04368437F2152
:104EA000FCF736F9311D032C6ED8A20001A3D258AD
:104EB0009746C046854F0008834F0008C54E00083E
:104EC000814F00080C365CE06842FCF727FC054681
:104ED00004982946FCF706FC002866D1019800B228
:104EE000FCF71CFC054603983146FCF7D2F9014655
:104EF0002846FCF7C6F9FCF731FC61003A4A5052EB
:104F0000394806994618405E404D01281ADB0021B9
:104F10002046FFF799FE308806B2FF2070437F21BC
:104F2000FCF7F6F82A1DB1B2032C35D8A30001A670
:104F30009B599F46954F0008934F00087D4F0008EE
:104F4000914F000801212046FFF77EFEFE20C0435E
:104F500031880EB270437F21FCF7DAF82A1DB1B216
:104F6000032C19D8A30001A69B599F46954F000812
:104F7000934F00087D4F0008914F00080C3508E062
:104F800008363146C0B2086060001749095A04E08B
:104F900008352A46C0B21060029F6000194A1152BB
:104FA00005980068386007B0F0BD04983146FCF7FA
:104FB000A7FB0028A4D104982946FCF785FB00280C
:104FC0009ED1009880B20849069A8852002005496F
:104FD000085595E728050020720800206A0800207F
:104FE000E8060020E0060020340700200407002027
:104FF00014070020BD378635F4060020CDCCCC3D0B
:10500000D00000203C07002024070020342C014061
:1050100070B50446B4291ED8274801557D252801BE
:105020004843B421FCF75EF8A90040186500204E03
:105030007053705B0A21FCF755F820490855705BE6
:105040000221002C02D0012C05D1032189001C4A29
:1050500012685118486370BDF0B581B00D46044622
:105060001248281880B27D21090188421CD86600A8
:105070000F4FBD53B42068430E4A8018FCF748F820
:105080000D4908550A212846FCF72CF80B4908550C
:10509000B85B0221002C02D0012C05D1032189002C
:1050A000074A12685118486301B0F0BD0CFEFFFFBB
:1050B0006008002070A0FEFF5C0800206808002047
:1050C0009806002070B50446A00022490E580D181D
:1050D000FDF74AFD86423CD2FDF746FD14302860BC
:1050E0002E48005D0D2161431B4A5118097B0029A0
:1050F00005D1814203D11A480119002228E042B2A9
:1051000049B21C206043154B1818FFF7BBFC052162
:10511000FBF7FEFF12490A577F237F2800DB184662
:105120007E23DD43A84200DC2846821809197E2A26
:1051300006DC0A7852B28418DB4381229C4207DBEA
:105140000A7852B283187F227E2B01DC0A788218FB
:105150000A7070BD0405002028050020D807002033
:10516000F0060020B0B50C4C2568FDF7FDFC85422B
:1051700011D2FDF7F9FC1430206008480021084ADC
:10518000084B54585D58641B047054585C50091DFA
:10519000401C1029F5D1B0BD240500207308002063
:1051A0006005002014050020B0B5401E0124010E4A
:1051B00009D1064D68600024E0430321FFF734FC69
:1051C000AC60072028602046B0BDC04610E000E07B
:1051D00080B5FDF701FF80BDF0B591B005AD281D8C
:1051E0001C21FBF7F2FF01240894122005900A9479
:1051F000102009900B9002260D9600270E9705208F
:10520000C0040F9010972846FEF724F8072001A944
:10521000C1C1049701A82146FDF72AFF11B0F0BDD6
:105220001248026801210A4302604268104B134091
:10523000436002680F4B134003608A040368934382
:1052400003603F221204436893434360C26A0F2302
:105250009A43C262FF221432036B93430363426B8F
:105260008A434263002181607047C04600100240BB
:105270000CB8FF08FFFFF6FE10B50468824B984299
:1052800002D01F4A904204D1702294434A682243BC
:1052900000E022461B4CA04208DC194CA0420ED074
:1052A000194CA0420BD0984209D026E0774B984287
:1052B00005D0774B984202D0764B98421DD10323FC
:1052C0001B029A43CB681343802293434A691A43D3
:1052D00002608A68C2620A688262874A82180A2368
:1052E000DA41072A06D801239340E122134201D074
:1052F000096901630121416110BD1346E4E7C0461D
:1053000000040040FF3F01400020004010B5012391
:105310008B40046A9C4304628A40016A1143016223
:1053200010BDB0B5FF2424028568A54311431A02BD
:105330000A432A438260B0BD826877239A430A43B6
:105340000721114381607047F0B5026A0125AA4325
:105350000262026A02239A43436886698C68144396
:10536000732296430A683243634E86190A27FE4128
:10537000072E16D8B540E126354215D00C25AC4392
:10538000CD680426B543254303242402A3434C6976
:105390008E691C43344344608261496841630562FD
:1053A000F0BD25461C46F6E725461C46F3E7C046F9
:1053B00070B5026A10239A430262046A2022944361
:1053C000436885698A681201224373242402A54335
:1053D0000C6824022C432C4DA84209D02B4DA84226
:1053E0000DD02B4DA8420AD02A4DA84210D106E07C
:1053F000C025AA43CD682D014F26B5432A43032576
:10540000AD02AB434D698E69AD001D43B3002B4324
:105410004360846149688163026270BD70B5012494
:105420002202036A93430362056A4268C6697323D2
:105430009E430B6833436402A5438C6824022C43CB
:10544000114DA84209D0114DA8420ED0104DA842CE
:105450000BD0104DA84211D107E00325AD02AC439B
:10546000CD682D020C4E2E40344303252D03AA4354
:105470004D698E692D01154332012A434260C36193
:105480004968C163046270BD002C014000400140C6
:10549000004801400044014000FBFFFFF0B501233C
:1054A0001A03046A944304625A03056A95434468E4
:1054B000C6698A6812032A4373252D02AE430D681C
:1054C0002D0235430C4E86190A27FE41072E0FD8B0
:1054D0001F46B740E12637420CD09B039C434B69E3
:1054E0009B0123434360C561496801640262F0BDCA
:1054F0002346F7E72346F5E700D4FEBFB0B5036ABD
:10550000046A0125AC4304628469F025AC431201AE
:10551000224382610A2293430B430362B0BD10B55C
:10552000036A1024A34303620F231B0384699C4373
:1055300012032243036A8261A022934309011943A3
:10554000016210BDF0B585B02C4D6878A978EA7875
:105550002B796C79AF7926023E430006090401439A
:1055600014020C431C430127B902621800208E422A
:1055700042D8002E24D00092FDF764F9002002A941
:1055800091C1019002A801A9FDF7B6F81C48844218
:1055900016D8082087B2E85DE9194A78120202435A
:1055A000887800041043C9780A06024302200023C9
:1055B0002146FDF7F7F8241D381D00998C42E9D3E8
:1055C00068780006A97809040143E87802020A43D2
:1055D00028791043002E08D00021425C6B181B7AFA
:1055E000491C9A4205D1B142F7DBFDF7D3F80120FF
:1055F00002E0FDF7CFF8002005B0F0BDE800002084
:10560000FFFBFFFF10B50A4C0821204600F0D4FA3A
:1056100000280CD007480078207007480078607098
:1056200006480078A0700821204600F065FB10BDF8
:1056300071050020D80600205C05002072080020BB
:1056400070470000F0B581B0027801290AD8FC2A21
:105650002AD0FF2A30D0FE2A36D1F5480121018018
:10566000F4482DE0DF2A15DDE02A38D0FD2A71D07C
:10567000FF2A00D0C4E0022900D0D6E10121405623
:10568000012800DAD1E1F7490870FFF7BBFF00F00D
:105690000DFBCAE1D02A00D1AAE0D12A00D0AFE0A8
:1056A0004078E5490870A8E0F0480078F0490870B3
:1056B000F04801210180B8E1EE4801210180E9486C
:1056C0000078EB490870B0E191089020242900D0BF
:1056D000A5E0E84804210180E9480068B2E041788B
:1056E000827812020A43D5498A4200D30A46C17819
:1056F00003794479D24884541B020B43591E8A42D1
:1057000000D092E1191F445CC3180225ED435D5D92
:105710002D0225430124E4431B5D1B042B43825CC3
:1057200012061A430023DB4300290BD0C54C057831
:105730001E0E6E40B50065591B026B40491E401C91
:105740000029F4D1934200D06FE1FFF7FBFE00285F
:10575000FBD06AE14078012800D066E1BA48FDF745
:1057600081FA00F091F9B948FDF7E8FFB84D2846F5
:10577000FEF724F9B748FCF737FCD3480168012746
:10578000B94301600920FDF765FC0021284600911E
:10579000FEF76AF904212846FEF766F90821284633
:1057A000FEF762F90C212846FEF75EF92846FDF760
:1057B000C5FFA94CC54DA94EB9022846FDF7C4F94D
:1057C000002805D1F9022846FDF7BEF9002808D0C7
:1057D0003068401C30603068A042EDD9A0480021FC
:1057E0000170601C3168814262D2FDF73FFC1CE110
:1057F0004078C949087000F0F9F9FFF703FF14E198
:10580000F02616400F251540974A1468431C03E004
:105810002078864223D02469002CF9D105E1014685
:105820002F31C9B28A4210D93430C0B2824270D20C
:10583000904804210180924800689249FBF729FDB5
:10584000FBF78CFF8A490860EFE001461031C9B2CE
:105850008A4250D1874801210180884830E7607B27
:10586000854200D9E1E0421BFF31C9B2401A8A42A9
:1058700000DB0846C2B2A06840191946FBF78CFC51
:10588000207B202863D0102878D1607B420800D18B
:10589000CBE06068A168D2B200234C780D782D026D
:1058A00025430580891C801C5B1C9342F5D3BCE01A
:1058B00000F0FCF9FEF73CFFFEF724FFFEF7E4FFE3
:1058C000FEF7E2FEFFF766F85F48FDF71BFA604D52
:1058D0002846009C2146FEF7ABF804212846FEF737
:1058E000A7F808212846FEF7A3F80C212846FEF762
:1058F0009FF8346099E0FE2111402030C0B281420F
:1059000007D15C48022101805B4800885849088023
:105910008BE0D12A06D0D02A09D156480121018036
:10592000DF48CDE65348012101807C48C8E6F020DD
:1059300010400F2515404C490E6803E0317888422D
:1059400020D03669002EF9D14A480021B2E6607BAA
:1059500082086AD06068A168D2B200230C7824065D
:105960004D782D0425438C7824022C43CD78254393
:1059700020C0091D5B1C9342F0D356E0627B606837
:10598000A16850E0727B0024954201D8501BC4B23C
:10599000307B202815D0102833D1500835D0C0B224
:1059A00000210A467368B7685B185B787B5473689C
:1059B000B7685B5C7F187B70891C521C8242F1D3F4
:1059C00023E0900821D0C0B200210A467368B7686E
:1059D0005B18DB787B547368B7687F185B189B781B
:1059E0007B707368B7687F185B185B78BB707368EF
:1059F000B7685B5C7F18FB70091D521C8242E5D3BF
:105A000003E07168B068FBF7C7FB1020102C00D3CF
:105A10000446B06817490C804119002C05D00029B4
:105A200003D013482246FBF7B7FB01B0F0BDC046D8
:105A300088080020CC000020720800201904000013
:105A4000E8000020785E00080C0600209806002080
:105A5000580600207C0500205FEA0000E4060020D4
:105A600070050020D806002048080020FF0F00081D
:105A700078080020880800202C0900203009002028
:105A8000DC0600200000C842F0B587B00024069470
:105A90000127B8040C490A6802430A6009680140FA
:105AA00001910198032085027F4E30462946224607
:105AB000FDF751F8039402950497059402A9304626
:105AC000FCF75CFF07B0F0BD141002400004004872
:105AD00010B5104C0821204600F06EF8002809D0BF
:105AE00020788449087060786D490870A0780B4967
:105AF000087010BD242020707E4908706848007826
:105B0000607006480078A0700821204600F0F4F884
:105B100010BDC046710500205C0500207208002001
:105B200010B5FEF7FDFBFDF75FFAFFF755FBFEF73B
:105B3000E9FDFEF7A9FEFEF7A7FDFEF72BFF0A4CD5
:105B40002046FCF701F9094928222046FCF72CFCE5
:105B5000FFF7BEFFFEF7ECFD00F0A8F8FEF73CFCF7
:105B6000FEF760FDFCE7C0467C0500208C080020A5
:105B700070B582B00F4E3068FCF7F6FF04467068CF
:105B8000451CB068281A01903068012109040842B8
:105B900005D0FCF7E9FF0446B068281A01907D2083
:105BA000C1004C43019848432946FBF79BFA001972
:105BB00002B070BD10E000E0B0B57B4B1C88002245
:105BC0007A4DAC420FD15C88002C0CD08C4200D3B3
:105BD0000C46002C07D00021CA1812794254491CE7
:105BE000A142F9D322461046B0BDC046F0B589B0F7
:105BF00000270897079706970597502004900520DF
:105C000081010291C00103900920C5062448007853
:105C1000244C00281ED00697059704AE284631462E
:105C2000FCF7ACFE0594A0200490012406942846BD
:105C30003146FCF7A3FE1B48059002980490069499
:105C4000194C20463146FCF799FE059703980490BD
:105C500006971FE0012001900690059404AE2846A7
:105C60003146FCF78BFE0597A02004900697284646
:105C70003146FCF783FE05970298049006970A4C7C
:105C800020463146FCF77AFE0648059003980490BA
:105C90000198069020463146FCF770FE09B0F0BD31
:105CA0005C0500200000311000040048B0B50E4C27
:105CB0000E480F4901220F4B1B785B00216060608A
:105CC000A360E260204610301421FBF77EFA2046E4
:105CD000FDF73CF8002520462946FCF74BFF2046FF
:105CE0002946FCF76CFFB0BD0C0600205D3E30205D
:105CF00000580040D8060020F0B587B00C46034697
:105D00000127B902221D00208A424AD80293FCF7DB
:105D100099FD00260496244D05950697039604A840
:105D200003A9FCF7E9FC214A384629463346FCF72B
:105D300039FDA91C3846224601963346FCF732FD50
:105D400066080FD01848071D029D287869780A0256
:105D50000243012000233946FCF724FDAD1CBF1C83
:105D6000761EF2D1E007029D0F4E08D02819019B44
:105D7000D943425CA019C11C0120FCF713FD002C83
:105D800008D00020295C82191279401C8A4205D172
:105D9000A042F7D3FCF7FEFC012002E0FCF7FAFC7E
:105DA000002007B0F0BDC04600FC000855AA000066
:105DB0002021020C01D010211046020A01D0104609
:105DC0000839020901D01046091F820801D0104687
:105DD000891E420801D0881E7047081A704702E0E9
:105DE00008C8121F08C1002AFAD170477047002066
:105DF00001E001C1121F002AFBD17047F0B50B3042
:105E0000C108C900144F0026144A0FE003688B42F2
:105E10000BD38B4205D95C1A4318456830C3083B45
:105E200000E04368136002C004E0021D106800280F
:105E3000ECD13046002803D13868002801D000207A
:105E4000F0BD064A06481060064A121AD208D2006F
:105E500044C001203860D7E7C4000020C000002003
:105E60003C090020380B002000000000000000006A
